{
  "_format": "hh-sol-artifact-1",
  "contractName": "UTA",
  "sourceName": "contracts/UTA.sol",
  "abi": [
    {
      "inputs": [
        {
          "internalType": "uint256",
          "name": "_taxRate",
          "type": "uint256"
        },
        {
          "internalType": "address",
          "name": "_taxCollectorAddress",
          "type": "address"
        }
      ],
      "stateMutability": "nonpayable",
      "type": "constructor"
    },
    {
      "anonymous": false,
      "inputs": [
        {
          "indexed": true,
          "internalType": "address",
          "name": "owner",
          "type": "address"
        },
        {
          "indexed": true,
          "internalType": "address",
          "name": "spender",
          "type": "address"
        },
        {
          "indexed": false,
          "internalType": "uint256",
          "name": "value",
          "type": "uint256"
        }
      ],
      "name": "Approval",
      "type": "event"
    },
    {
      "anonymous": false,
      "inputs": [
        {
          "indexed": true,
          "internalType": "address",
          "name": "previousOperator",
          "type": "address"
        },
        {
          "indexed": true,
          "internalType": "address",
          "name": "newOperator",
          "type": "address"
        }
      ],
      "name": "OperatorTransferred",
      "type": "event"
    },
    {
      "anonymous": false,
      "inputs": [
        {
          "indexed": true,
          "internalType": "address",
          "name": "previousOwner",
          "type": "address"
        },
        {
          "indexed": true,
          "internalType": "address",
          "name": "newOwner",
          "type": "address"
        }
      ],
      "name": "OwnershipTransferred",
      "type": "event"
    },
    {
      "anonymous": false,
      "inputs": [
        {
          "indexed": false,
          "internalType": "address",
          "name": "oldAddress",
          "type": "address"
        },
        {
          "indexed": false,
          "internalType": "address",
          "name": "newAddress",
          "type": "address"
        }
      ],
      "name": "TaxOfficeTransferred",
      "type": "event"
    },
    {
      "anonymous": false,
      "inputs": [
        {
          "indexed": true,
          "internalType": "address",
          "name": "from",
          "type": "address"
        },
        {
          "indexed": true,
          "internalType": "address",
          "name": "to",
          "type": "address"
        },
        {
          "indexed": false,
          "internalType": "uint256",
          "name": "value",
          "type": "uint256"
        }
      ],
      "name": "Transfer",
      "type": "event"
    },
    {
      "inputs": [],
      "name": "INITIAL_AIRDROP_WALLET_DISTRIBUTION",
      "outputs": [
        {
          "internalType": "uint256",
          "name": "",
          "type": "uint256"
        }
      ],
      "stateMutability": "view",
      "type": "function"
    },
    {
      "inputs": [],
      "name": "INITIAL_GENESIS_POOL_DISTRIBUTION",
      "outputs": [
        {
          "internalType": "uint256",
          "name": "",
          "type": "uint256"
        }
      ],
      "stateMutability": "view",
      "type": "function"
    },
    {
      "inputs": [],
      "name": "INITIAL_UTA_POOL_DISTRIBUTION",
      "outputs": [
        {
          "internalType": "uint256",
          "name": "",
          "type": "uint256"
        }
      ],
      "stateMutability": "view",
      "type": "function"
    },
    {
      "inputs": [
        {
          "internalType": "address",
          "name": "owner",
          "type": "address"
        },
        {
          "internalType": "address",
          "name": "spender",
          "type": "address"
        }
      ],
      "name": "allowance",
      "outputs": [
        {
          "internalType": "uint256",
          "name": "",
          "type": "uint256"
        }
      ],
      "stateMutability": "view",
      "type": "function"
    },
    {
      "inputs": [
        {
          "internalType": "address",
          "name": "spender",
          "type": "address"
        },
        {
          "internalType": "uint256",
          "name": "amount",
          "type": "uint256"
        }
      ],
      "name": "approve",
      "outputs": [
        {
          "internalType": "bool",
          "name": "",
          "type": "bool"
        }
      ],
      "stateMutability": "nonpayable",
      "type": "function"
    },
    {
      "inputs": [],
      "name": "autoCalculateTax",
      "outputs": [
        {
          "internalType": "bool",
          "name": "",
          "type": "bool"
        }
      ],
      "stateMutability": "view",
      "type": "function"
    },
    {
      "inputs": [
        {
          "internalType": "address",
          "name": "account",
          "type": "address"
        }
      ],
      "name": "balanceOf",
      "outputs": [
        {
          "internalType": "uint256",
          "name": "",
          "type": "uint256"
        }
      ],
      "stateMutability": "view",
      "type": "function"
    },
    {
      "inputs": [
        {
          "internalType": "uint256",
          "name": "amount",
          "type": "uint256"
        }
      ],
      "name": "burn",
      "outputs": [],
      "stateMutability": "nonpayable",
      "type": "function"
    },
    {
      "inputs": [
        {
          "internalType": "address",
          "name": "account",
          "type": "address"
        },
        {
          "internalType": "uint256",
          "name": "amount",
          "type": "uint256"
        }
      ],
      "name": "burnFrom",
      "outputs": [],
      "stateMutability": "nonpayable",
      "type": "function"
    },
    {
      "inputs": [],
      "name": "burnThreshold",
      "outputs": [
        {
          "internalType": "uint256",
          "name": "",
          "type": "uint256"
        }
      ],
      "stateMutability": "view",
      "type": "function"
    },
    {
      "inputs": [],
      "name": "decimals",
      "outputs": [
        {
          "internalType": "uint8",
          "name": "",
          "type": "uint8"
        }
      ],
      "stateMutability": "view",
      "type": "function"
    },
    {
      "inputs": [
        {
          "internalType": "address",
          "name": "spender",
          "type": "address"
        },
        {
          "internalType": "uint256",
          "name": "subtractedValue",
          "type": "uint256"
        }
      ],
      "name": "decreaseAllowance",
      "outputs": [
        {
          "internalType": "bool",
          "name": "",
          "type": "bool"
        }
      ],
      "stateMutability": "nonpayable",
      "type": "function"
    },
    {
      "inputs": [],
      "name": "disableAutoCalculateTax",
      "outputs": [],
      "stateMutability": "nonpayable",
      "type": "function"
    },
    {
      "inputs": [
        {
          "internalType": "address",
          "name": "_genesisPool",
          "type": "address"
        },
        {
          "internalType": "address",
          "name": "_utaPool",
          "type": "address"
        },
        {
          "internalType": "address",
          "name": "_airdropWallet",
          "type": "address"
        }
      ],
      "name": "distributeReward",
      "outputs": [],
      "stateMutability": "nonpayable",
      "type": "function"
    },
    {
      "inputs": [],
      "name": "enableAutoCalculateTax",
      "outputs": [],
      "stateMutability": "nonpayable",
      "type": "function"
    },
    {
      "inputs": [
        {
          "internalType": "address",
          "name": "_address",
          "type": "address"
        }
      ],
      "name": "excludeAddress",
      "outputs": [
        {
          "internalType": "bool",
          "name": "",
          "type": "bool"
        }
      ],
      "stateMutability": "nonpayable",
      "type": "function"
    },
    {
      "inputs": [
        {
          "internalType": "address",
          "name": "",
          "type": "address"
        }
      ],
      "name": "excludedAddresses",
      "outputs": [
        {
          "internalType": "bool",
          "name": "",
          "type": "bool"
        }
      ],
      "stateMutability": "view",
      "type": "function"
    },
    {
      "inputs": [],
      "name": "getTaxTiersRatesCount",
      "outputs": [
        {
          "internalType": "uint256",
          "name": "count",
          "type": "uint256"
        }
      ],
      "stateMutability": "view",
      "type": "function"
    },
    {
      "inputs": [],
      "name": "getTaxTiersTwapsCount",
      "outputs": [
        {
          "internalType": "uint256",
          "name": "count",
          "type": "uint256"
        }
      ],
      "stateMutability": "view",
      "type": "function"
    },
    {
      "inputs": [
        {
          "internalType": "contract IERC20",
          "name": "_token",
          "type": "address"
        },
        {
          "internalType": "uint256",
          "name": "_amount",
          "type": "uint256"
        },
        {
          "internalType": "address",
          "name": "_to",
          "type": "address"
        }
      ],
      "name": "governanceRecoverUnsupported",
      "outputs": [],
      "stateMutability": "nonpayable",
      "type": "function"
    },
    {
      "inputs": [
        {
          "internalType": "address",
          "name": "_address",
          "type": "address"
        }
      ],
      "name": "includeAddress",
      "outputs": [
        {
          "internalType": "bool",
          "name": "",
          "type": "bool"
        }
      ],
      "stateMutability": "nonpayable",
      "type": "function"
    },
    {
      "inputs": [
        {
          "internalType": "address",
          "name": "spender",
          "type": "address"
        },
        {
          "internalType": "uint256",
          "name": "addedValue",
          "type": "uint256"
        }
      ],
      "name": "increaseAllowance",
      "outputs": [
        {
          "internalType": "bool",
          "name": "",
          "type": "bool"
        }
      ],
      "stateMutability": "nonpayable",
      "type": "function"
    },
    {
      "inputs": [
        {
          "internalType": "address",
          "name": "_address",
          "type": "address"
        }
      ],
      "name": "isAddressExcluded",
      "outputs": [
        {
          "internalType": "bool",
          "name": "",
          "type": "bool"
        }
      ],
      "stateMutability": "view",
      "type": "function"
    },
    {
      "inputs": [],
      "name": "isOperator",
      "outputs": [
        {
          "internalType": "bool",
          "name": "",
          "type": "bool"
        }
      ],
      "stateMutability": "view",
      "type": "function"
    },
    {
      "inputs": [
        {
          "internalType": "address",
          "name": "recipient_",
          "type": "address"
        },
        {
          "internalType": "uint256",
          "name": "amount_",
          "type": "uint256"
        }
      ],
      "name": "mint",
      "outputs": [
        {
          "internalType": "bool",
          "name": "",
          "type": "bool"
        }
      ],
      "stateMutability": "nonpayable",
      "type": "function"
    },
    {
      "inputs": [],
      "name": "name",
      "outputs": [
        {
          "internalType": "string",
          "name": "",
          "type": "string"
        }
      ],
      "stateMutability": "view",
      "type": "function"
    },
    {
      "inputs": [],
      "name": "operator",
      "outputs": [
        {
          "internalType": "address",
          "name": "",
          "type": "address"
        }
      ],
      "stateMutability": "view",
      "type": "function"
    },
    {
      "inputs": [],
      "name": "owner",
      "outputs": [
        {
          "internalType": "address",
          "name": "",
          "type": "address"
        }
      ],
      "stateMutability": "view",
      "type": "function"
    },
    {
      "inputs": [],
      "name": "renounceOwnership",
      "outputs": [],
      "stateMutability": "nonpayable",
      "type": "function"
    },
    {
      "inputs": [],
      "name": "rewardPoolDistributed",
      "outputs": [
        {
          "internalType": "bool",
          "name": "",
          "type": "bool"
        }
      ],
      "stateMutability": "view",
      "type": "function"
    },
    {
      "inputs": [
        {
          "internalType": "uint256",
          "name": "_burnThreshold",
          "type": "uint256"
        }
      ],
      "name": "setBurnThreshold",
      "outputs": [
        {
          "internalType": "bool",
          "name": "",
          "type": "bool"
        }
      ],
      "stateMutability": "nonpayable",
      "type": "function"
    },
    {
      "inputs": [
        {
          "internalType": "address",
          "name": "_taxCollectorAddress",
          "type": "address"
        }
      ],
      "name": "setTaxCollectorAddress",
      "outputs": [],
      "stateMutability": "nonpayable",
      "type": "function"
    },
    {
      "inputs": [
        {
          "internalType": "address",
          "name": "_taxOffice",
          "type": "address"
        }
      ],
      "name": "setTaxOffice",
      "outputs": [],
      "stateMutability": "nonpayable",
      "type": "function"
    },
    {
      "inputs": [
        {
          "internalType": "uint256",
          "name": "_taxRate",
          "type": "uint256"
        }
      ],
      "name": "setTaxRate",
      "outputs": [],
      "stateMutability": "nonpayable",
      "type": "function"
    },
    {
      "inputs": [
        {
          "internalType": "uint8",
          "name": "_index",
          "type": "uint8"
        },
        {
          "internalType": "uint256",
          "name": "_value",
          "type": "uint256"
        }
      ],
      "name": "setTaxTiersRate",
      "outputs": [
        {
          "internalType": "bool",
          "name": "",
          "type": "bool"
        }
      ],
      "stateMutability": "nonpayable",
      "type": "function"
    },
    {
      "inputs": [
        {
          "internalType": "uint8",
          "name": "_index",
          "type": "uint8"
        },
        {
          "internalType": "uint256",
          "name": "_value",
          "type": "uint256"
        }
      ],
      "name": "setTaxTiersTwap",
      "outputs": [
        {
          "internalType": "bool",
          "name": "",
          "type": "bool"
        }
      ],
      "stateMutability": "nonpayable",
      "type": "function"
    },
    {
      "inputs": [
        {
          "internalType": "address",
          "name": "_utaOracle",
          "type": "address"
        }
      ],
      "name": "setUTAOracle",
      "outputs": [],
      "stateMutability": "nonpayable",
      "type": "function"
    },
    {
      "inputs": [],
      "name": "symbol",
      "outputs": [
        {
          "internalType": "string",
          "name": "",
          "type": "string"
        }
      ],
      "stateMutability": "view",
      "type": "function"
    },
    {
      "inputs": [],
      "name": "taxCollectorAddress",
      "outputs": [
        {
          "internalType": "address",
          "name": "",
          "type": "address"
        }
      ],
      "stateMutability": "view",
      "type": "function"
    },
    {
      "inputs": [],
      "name": "taxOffice",
      "outputs": [
        {
          "internalType": "address",
          "name": "",
          "type": "address"
        }
      ],
      "stateMutability": "view",
      "type": "function"
    },
    {
      "inputs": [],
      "name": "taxRate",
      "outputs": [
        {
          "internalType": "uint256",
          "name": "",
          "type": "uint256"
        }
      ],
      "stateMutability": "view",
      "type": "function"
    },
    {
      "inputs": [
        {
          "internalType": "uint256",
          "name": "",
          "type": "uint256"
        }
      ],
      "name": "taxTiersRates",
      "outputs": [
        {
          "internalType": "uint256",
          "name": "",
          "type": "uint256"
        }
      ],
      "stateMutability": "view",
      "type": "function"
    },
    {
      "inputs": [
        {
          "internalType": "uint256",
          "name": "",
          "type": "uint256"
        }
      ],
      "name": "taxTiersTwaps",
      "outputs": [
        {
          "internalType": "uint256",
          "name": "",
          "type": "uint256"
        }
      ],
      "stateMutability": "view",
      "type": "function"
    },
    {
      "inputs": [],
      "name": "totalSupply",
      "outputs": [
        {
          "internalType": "uint256",
          "name": "",
          "type": "uint256"
        }
      ],
      "stateMutability": "view",
      "type": "function"
    },
    {
      "inputs": [
        {
          "internalType": "address",
          "name": "recipient",
          "type": "address"
        },
        {
          "internalType": "uint256",
          "name": "amount",
          "type": "uint256"
        }
      ],
      "name": "transfer",
      "outputs": [
        {
          "internalType": "bool",
          "name": "",
          "type": "bool"
        }
      ],
      "stateMutability": "nonpayable",
      "type": "function"
    },
    {
      "inputs": [
        {
          "internalType": "address",
          "name": "sender",
          "type": "address"
        },
        {
          "internalType": "address",
          "name": "recipient",
          "type": "address"
        },
        {
          "internalType": "uint256",
          "name": "amount",
          "type": "uint256"
        }
      ],
      "name": "transferFrom",
      "outputs": [
        {
          "internalType": "bool",
          "name": "",
          "type": "bool"
        }
      ],
      "stateMutability": "nonpayable",
      "type": "function"
    },
    {
      "inputs": [
        {
          "internalType": "address",
          "name": "newOperator_",
          "type": "address"
        }
      ],
      "name": "transferOperator",
      "outputs": [],
      "stateMutability": "nonpayable",
      "type": "function"
    },
    {
      "inputs": [
        {
          "internalType": "address",
          "name": "newOwner",
          "type": "address"
        }
      ],
      "name": "transferOwnership",
      "outputs": [],
      "stateMutability": "nonpayable",
      "type": "function"
    },
    {
      "inputs": [],
      "name": "utaOracle",
      "outputs": [
        {
          "internalType": "address",
          "name": "",
          "type": "address"
        }
      ],
      "stateMutability": "view",
      "type": "function"
    }
  ],
  "bytecode": "0x60806040526000600660146101000a81548160ff021916908315150217905550670f43fc2c04ee0000600a55604051806101c00160405280600067ffffffffffffffff1681526020016706f05b59d3b2000067ffffffffffffffff168152602001670853a0d2313c000067ffffffffffffffff1681526020016709b6e64a8ec6000067ffffffffffffffff168152602001670b1a2bc2ec50000067ffffffffffffffff168152602001670c7d713b49da000067ffffffffffffffff168152602001670d2f13f7789f000067ffffffffffffffff168152602001670de0b6b3a764000067ffffffffffffffff168152602001670e92596fd629000067ffffffffffffffff168152602001670f43fc2c04ee000067ffffffffffffffff1681526020016710a741a46278000067ffffffffffffffff16815260200167120a871cc002000067ffffffffffffffff16815260200167136dcc951d8c000067ffffffffffffffff1681526020016714d1120d7b16000067ffffffffffffffff16815250600c90600e6200019092919062000b41565b50604051806101c001604052806107d061ffff16815260200161076c61ffff16815260200161070861ffff1681526020016106a461ffff16815260200161064061ffff1681526020016105dc61ffff1681526020016105dc61ffff1681526020016105dc61ffff1681526020016105dc61ffff16815260200161057861ffff16815260200161038461ffff16815260200161019061ffff16815260200160c861ffff168152602001606461ffff16815250600d90600e6200025392919062000b9f565b503480156200026157600080fd5b50604051620054a6380380620054a6833981810160405260408110156200028757600080fd5b8101908080519060200190929190805190602001909291905050506040518060400160405280600881526020017f555441546f6b656e0000000000000000000000000000000000000000000000008152506040518060400160405280600381526020017f555441000000000000000000000000000000000000000000000000000000000081525081600390805190602001906200032692919062000bf7565b5080600490805190602001906200033f92919062000bf7565b506012600560006101000a81548160ff021916908360ff16021790555050506000620003706200066b60201b60201c565b905080600560016101000a81548173ffffffffffffffffffffffffffffffffffffffff021916908373ffffffffffffffffffffffffffffffffffffffff1602179055508073ffffffffffffffffffffffffffffffffffffffff16600073ffffffffffffffffffffffffffffffffffffffff167f8be0079c531659141344cd1fd0a4f28419497f9722a3daafe3b4186f6b6457e060405160405180910390a3506200041f6200066b60201b60201c565b600660006101000a81548173ffffffffffffffffffffffffffffffffffffffff021916908373ffffffffffffffffffffffffffffffffffffffff160217905550600660009054906101000a900473ffffffffffffffffffffffffffffffffffffffff1673ffffffffffffffffffffffffffffffffffffffff16600073ffffffffffffffffffffffffffffffffffffffff167f74da04524d50c64947f5dd5381ef1a4dca5cba8ed1d816243f9e48aa0b5617ed60405160405180910390a3612710821062000554576040517f08c379a000000000000000000000000000000000000000000000000000000000815260040180806020018281038252601b8152602001807f74617820657175616c206f722062696767657220746f2031303025000000000081525060200191505060405180910390fd5b600073ffffffffffffffffffffffffffffffffffffffff168173ffffffffffffffffffffffffffffffffffffffff161415620005dc576040517f08c379a000000000000000000000000000000000000000000000000000000000815260040180806020018281038252602e8152602001806200544c602e913960400191505060405180910390fd5b620005ed306200067360201b60201c565b506200061b33620006036200085760201b60201c565b60ff16600a0a60640260ff166200086e60201b60201c565b8160098190555080600b60006101000a81548173ffffffffffffffffffffffffffffffffffffffff021916908373ffffffffffffffffffffffffffffffffffffffff160217905550505062000ca6565b600033905090565b60006200068562000a4c60201b60201c565b80620006de57503373ffffffffffffffffffffffffffffffffffffffff16600860009054906101000a900473ffffffffffffffffffffffffffffffffffffffff1673ffffffffffffffffffffffffffffffffffffffff16145b62000735576040517f08c379a000000000000000000000000000000000000000000000000000000000815260040180806020018281038252602c8152602001806200547a602c913960400191505060405180910390fd5b600e60008373ffffffffffffffffffffffffffffffffffffffff1673ffffffffffffffffffffffffffffffffffffffff16815260200190815260200160002060009054906101000a900460ff1615620007f6576040517f08c379a00000000000000000000000000000000000000000000000000000000081526004018080602001828103825260198152602001807f616464726573732063616e2774206265206578636c756465640000000000000081525060200191505060405180910390fd5b6001600e60008473ffffffffffffffffffffffffffffffffffffffff1673ffffffffffffffffffffffffffffffffffffffff16815260200190815260200160002060006101000a81548160ff02191690831515021790555060019050919050565b6000600560009054906101000a900460ff16905090565b600073ffffffffffffffffffffffffffffffffffffffff168273ffffffffffffffffffffffffffffffffffffffff16141562000912576040517f08c379a000000000000000000000000000000000000000000000000000000000815260040180806020018281038252601f8152602001807f45524332303a206d696e7420746f20746865207a65726f20616464726573730081525060200191505060405180910390fd5b620009266000838362000ab360201b60201c565b620009428160025462000ab860201b62003d161790919060201c565b600281905550620009a0816000808573ffffffffffffffffffffffffffffffffffffffff1673ffffffffffffffffffffffffffffffffffffffff1681526020019081526020016000205462000ab860201b62003d161790919060201c565b6000808473ffffffffffffffffffffffffffffffffffffffff1673ffffffffffffffffffffffffffffffffffffffff168152602001908152602001600020819055508173ffffffffffffffffffffffffffffffffffffffff16600073ffffffffffffffffffffffffffffffffffffffff167fddf252ad1be2c89b69c2b068fc378daa952ba7f163c4a11628f55a4df523b3ef836040518082815260200191505060405180910390a35050565b6000600660009054906101000a900473ffffffffffffffffffffffffffffffffffffffff1673ffffffffffffffffffffffffffffffffffffffff1662000a976200066b60201b60201c565b73ffffffffffffffffffffffffffffffffffffffff1614905090565b505050565b60008082840190508381101562000b37576040517f08c379a000000000000000000000000000000000000000000000000000000000815260040180806020018281038252601b8152602001807f536166654d6174683a206164646974696f6e206f766572666c6f77000000000081525060200191505060405180910390fd5b8091505092915050565b82805482825590600052602060002090810192821562000b8c579160200282015b8281111562000b8b578251829067ffffffffffffffff1690559160200191906001019062000b62565b5b50905062000b9b919062000c7e565b5090565b82805482825590600052602060002090810192821562000be4579160200282015b8281111562000be3578251829061ffff1690559160200191906001019062000bc0565b5b50905062000bf3919062000c7e565b5090565b828054600181600116156101000203166002900490600052602060002090601f016020900481019282601f1062000c3a57805160ff191683800117855562000c6b565b8280016001018555821562000c6b579182015b8281111562000c6a57825182559160200191906001019062000c4d565b5b50905062000c7a919062000c7e565b5090565b62000ca391905b8082111562000c9f57600081600090555060010162000c85565b5090565b90565b6147968062000cb66000396000f3fe608060405234801561001057600080fd5b50600436106102bb5760003560e01c806370a0823111610182578063a6431bba116100e9578063cf011b26116100a2578063ee2a95351161007c578063ee2a953514610f6a578063f2fde38b14610f88578063ff87fc7c14610fcc578063ffa8226e14610fd6576102bb565b8063cf011b2614610e3a578063dd62ed3e14610e96578063ebca1bd914610f0e576102bb565b8063a6431bba14610ca7578063a9059cbb14610cc5578063b87c5a4a14610d2b578063c3bdf61314610d7e578063c6d69a3014610dc8578063c8466e5214610df6576102bb565b80638da5cb5b1161013b5780638da5cb5b14610ab057806393995d4b14610afa57806395d89b4114610b565780639662676c14610bd95780639d6b5f2114610bfb578063a457c2d714610c41576102bb565b806370a0823114610976578063715018a6146109ce578063771a3a1d146109d857806379cc6790146109f657806386d258b014610a445780638d3cc81814610a8e576102bb565b806342c6b4f11161022657806354575af4116101df57806354575af4146107db578063570ca735146108495780635c29908d1461089357806365bbacd9146108d557806366206ce9146108df57806369356d4714610932576102bb565b806342c6b4f1146106995780634456eda2146106db5780634e20a02c146106fd5780634f6d38d01461071b578063521181d51461073957806354190163146107bd576102bb565b80633758e6ce116102785780633758e6ce146104b557806339509351146105115780633e5f13d4146105775780633f07d76a146105c157806340c10f191461060557806342966c681461066b576102bb565b806306fdde03146102c0578063095ea7b31461034357806318160ddd146103a957806323b872dd146103c757806329605e771461044d578063313ce56714610491575b600080fd5b6102c8610ff4565b6040518080602001828103825283818151815260200191508051906020019080838360005b838110156103085780820151818401526020810190506102ed565b50505050905090810190601f1680156103355780820380516001836020036101000a031916815260200191505b509250505060405180910390f35b61038f6004803603604081101561035957600080fd5b81019080803573ffffffffffffffffffffffffffffffffffffffff16906020019092919080359060200190929190505050611096565b604051808215151515815260200191505060405180910390f35b6103b16110b4565b6040518082815260200191505060405180910390f35b610433600480360360608110156103dd57600080fd5b81019080803573ffffffffffffffffffffffffffffffffffffffff169060200190929190803573ffffffffffffffffffffffffffffffffffffffff169060200190929190803590602001909291905050506110be565b604051808215151515815260200191505060405180910390f35b61048f6004803603602081101561046357600080fd5b81019080803573ffffffffffffffffffffffffffffffffffffffff1690602001909291905050506111dd565b005b610499611298565b604051808260ff1660ff16815260200191505060405180910390f35b6104f7600480360360208110156104cb57600080fd5b81019080803573ffffffffffffffffffffffffffffffffffffffff1690602001909291905050506112af565b604051808215151515815260200191505060405180910390f35b61055d6004803603604081101561052757600080fd5b81019080803573ffffffffffffffffffffffffffffffffffffffff16906020019092919080359060200190929190505050611487565b604051808215151515815260200191505060405180910390f35b61057f61153a565b604051808273ffffffffffffffffffffffffffffffffffffffff1673ffffffffffffffffffffffffffffffffffffffff16815260200191505060405180910390f35b610603600480360360208110156105d757600080fd5b81019080803573ffffffffffffffffffffffffffffffffffffffff169060200190929190505050611560565b005b6106516004803603604081101561061b57600080fd5b81019080803573ffffffffffffffffffffffffffffffffffffffff16906020019092919080359060200190929190505050611798565b604051808215151515815260200191505060405180910390f35b6106976004803603602081101561068157600080fd5b8101908080359060200190929190505050611871565b005b6106c5600480360360208110156106af57600080fd5b810190808035906020019092919050505061187d565b6040518082815260200191505060405180910390f35b6106e361189e565b604051808215151515815260200191505060405180910390f35b6107056118fd565b6040518082815260200191505060405180910390f35b61072361190b565b6040518082815260200191505060405180910390f35b6107bb6004803603606081101561074f57600080fd5b81019080803573ffffffffffffffffffffffffffffffffffffffff169060200190929190803573ffffffffffffffffffffffffffffffffffffffff169060200190929190803573ffffffffffffffffffffffffffffffffffffffff169060200190929190505050611911565b005b6107c5611c7f565b6040518082815260200191505060405180910390f35b610847600480360360608110156107f157600080fd5b81019080803573ffffffffffffffffffffffffffffffffffffffff16906020019092919080359060200190929190803573ffffffffffffffffffffffffffffffffffffffff169060200190929190505050611c8d565b005b610851611dfb565b604051808273ffffffffffffffffffffffffffffffffffffffff1673ffffffffffffffffffffffffffffffffffffffff16815260200191505060405180910390f35b6108bf600480360360208110156108a957600080fd5b8101908080359060200190929190505050611e25565b6040518082815260200191505060405180910390f35b6108dd611e46565b005b610918600480360360408110156108f557600080fd5b81019080803560ff16906020019092919080359060200190929190505050611f26565b604051808215151515815260200191505060405180910390f35b6109746004803603602081101561094857600080fd5b81019080803573ffffffffffffffffffffffffffffffffffffffff169060200190929190505050612175565b005b6109b86004803603602081101561098c57600080fd5b81019080803573ffffffffffffffffffffffffffffffffffffffff169060200190929190505050612302565b6040518082815260200191505060405180910390f35b6109d661234a565b005b6109e06124ba565b6040518082815260200191505060405180910390f35b610a4260048036036040811015610a0c57600080fd5b81019080803573ffffffffffffffffffffffffffffffffffffffff169060200190929190803590602001909291905050506124c0565b005b610a4c612574565b604051808273ffffffffffffffffffffffffffffffffffffffff1673ffffffffffffffffffffffffffffffffffffffff16815260200191505060405180910390f35b610a9661259a565b604051808215151515815260200191505060405180910390f35b610ab86125ad565b604051808273ffffffffffffffffffffffffffffffffffffffff1673ffffffffffffffffffffffffffffffffffffffff16815260200191505060405180910390f35b610b3c60048036036020811015610b1057600080fd5b81019080803573ffffffffffffffffffffffffffffffffffffffff1690602001909291905050506125d7565b604051808215151515815260200191505060405180910390f35b610b5e6127ae565b6040518080602001828103825283818151815260200191508051906020019080838360005b83811015610b9e578082015181840152602081019050610b83565b50505050905090810190601f168015610bcb5780820380516001836020036101000a031916815260200191505b509250505060405180910390f35b610be1612850565b604051808215151515815260200191505060405180910390f35b610c2760048036036020811015610c1157600080fd5b8101908080359060200190929190505050612863565b604051808215151515815260200191505060405180910390f35b610c8d60048036036040811015610c5757600080fd5b81019080803573ffffffffffffffffffffffffffffffffffffffff16906020019092919080359060200190929190505050612934565b604051808215151515815260200191505060405180910390f35b610caf612a01565b6040518082815260200191505060405180910390f35b610d1160048036036040811015610cdb57600080fd5b81019080803573ffffffffffffffffffffffffffffffffffffffff16906020019092919080359060200190929190505050612a0e565b604051808215151515815260200191505060405180910390f35b610d6460048036036040811015610d4157600080fd5b81019080803560ff16906020019092919080359060200190929190505050612a2c565b604051808215151515815260200191505060405180910390f35b610d86612bf6565b604051808273ffffffffffffffffffffffffffffffffffffffff1673ffffffffffffffffffffffffffffffffffffffff16815260200191505060405180910390f35b610df460048036036020811015610dde57600080fd5b8101908080359060200190929190505050612c1c565b005b610e3860048036036020811015610e0c57600080fd5b81019080803573ffffffffffffffffffffffffffffffffffffffff169060200190929190505050612dc6565b005b610e7c60048036036020811015610e5057600080fd5b81019080803573ffffffffffffffffffffffffffffffffffffffff169060200190929190505050612f45565b604051808215151515815260200191505060405180910390f35b610ef860048036036040811015610eac57600080fd5b81019080803573ffffffffffffffffffffffffffffffffffffffff169060200190929190803573ffffffffffffffffffffffffffffffffffffffff169060200190929190505050612f65565b6040518082815260200191505060405180910390f35b610f5060048036036020811015610f2457600080fd5b81019080803573ffffffffffffffffffffffffffffffffffffffff169060200190929190505050612fec565b604051808215151515815260200191505060405180910390f35b610f72613042565b6040518082815260200191505060405180910390f35b610fca60048036036020811015610f9e57600080fd5b81019080803573ffffffffffffffffffffffffffffffffffffffff16906020019092919050505061304f565b005b610fd4613244565b005b610fde613324565b6040518082815260200191505060405180910390f35b606060038054600181600116156101000203166002900480601f01602080910402602001604051908101604052809291908181526020018280546001816001161561010002031660029004801561108c5780601f106110615761010080835404028352916020019161108c565b820191906000526020600020905b81548152906001019060200180831161106f57829003601f168201915b5050505050905090565b60006110aa6110a3613332565b848461333a565b6001905092915050565b6000600254905090565b600080600090506000809050600b60149054906101000a900460ff16156111075760006110e9613531565b90506110f481613686565b9250600a5481101561110557600191505b505b600082148061115f5750600e60008773ffffffffffffffffffffffffffffffffffffffff1673ffffffffffffffffffffffffffffffffffffffff16815260200190815260200160002060009054906101000a900460ff165b156111745761116f8686866137d5565b611182565b61118086868684613a96565b505b6111d08661118e613332565b6111cb87604051806060016040528060288152602001614598602891396111bc8c6111b7613332565b612f65565b613b379092919063ffffffff16565b61333a565b6001925050509392505050565b6111e5613332565b73ffffffffffffffffffffffffffffffffffffffff166112036125ad565b73ffffffffffffffffffffffffffffffffffffffff161461128c576040517f08c379a00000000000000000000000000000000000000000000000000000000081526004018080602001828103825260208152602001807f4f776e61626c653a2063616c6c6572206973206e6f7420746865206f776e657281525060200191505060405180910390fd5b61129581613bf1565b50565b6000600560009054906101000a900460ff16905090565b60006112b961189e565b8061131157503373ffffffffffffffffffffffffffffffffffffffff16600860009054906101000a900473ffffffffffffffffffffffffffffffffffffffff1673ffffffffffffffffffffffffffffffffffffffff16145b611366576040517f08c379a000000000000000000000000000000000000000000000000000000000815260040180806020018281038252602c8152602001806146ec602c913960400191505060405180910390fd5b600e60008373ffffffffffffffffffffffffffffffffffffffff1673ffffffffffffffffffffffffffffffffffffffff16815260200190815260200160002060009054906101000a900460ff1615611426576040517f08c379a00000000000000000000000000000000000000000000000000000000081526004018080602001828103825260198152602001807f616464726573732063616e2774206265206578636c756465640000000000000081525060200191505060405180910390fd5b6001600e60008473ffffffffffffffffffffffffffffffffffffffff1673ffffffffffffffffffffffffffffffffffffffff16815260200190815260200160002060006101000a81548160ff02191690831515021790555060019050919050565b6000611530611494613332565b8461152b85600160006114a5613332565b73ffffffffffffffffffffffffffffffffffffffff1673ffffffffffffffffffffffffffffffffffffffff16815260200190815260200160002060008973ffffffffffffffffffffffffffffffffffffffff1673ffffffffffffffffffffffffffffffffffffffff16815260200190815260200160002054613d1690919063ffffffff16565b61333a565b6001905092915050565b600860009054906101000a900473ffffffffffffffffffffffffffffffffffffffff1681565b61156861189e565b806115c057503373ffffffffffffffffffffffffffffffffffffffff16600860009054906101000a900473ffffffffffffffffffffffffffffffffffffffff1673ffffffffffffffffffffffffffffffffffffffff16145b611615576040517f08c379a000000000000000000000000000000000000000000000000000000000815260040180806020018281038252602c8152602001806146ec602c913960400191505060405180910390fd5b600073ffffffffffffffffffffffffffffffffffffffff168173ffffffffffffffffffffffffffffffffffffffff16141561169b576040517f08c379a00000000000000000000000000000000000000000000000000000000081526004018080602001828103825260268152602001806144fa6026913960400191505060405180910390fd5b7f75237613d1cfb394eb7979839ecbeacaca4592ef0cf96791979625803948a601600860009054906101000a900473ffffffffffffffffffffffffffffffffffffffff1682604051808373ffffffffffffffffffffffffffffffffffffffff1673ffffffffffffffffffffffffffffffffffffffff1681526020018273ffffffffffffffffffffffffffffffffffffffff1673ffffffffffffffffffffffffffffffffffffffff1681526020019250505060405180910390a180600860006101000a81548173ffffffffffffffffffffffffffffffffffffffff021916908373ffffffffffffffffffffffffffffffffffffffff16021790555050565b60003373ffffffffffffffffffffffffffffffffffffffff16600660009054906101000a900473ffffffffffffffffffffffffffffffffffffffff1673ffffffffffffffffffffffffffffffffffffffff1614611840576040517f08c379a00000000000000000000000000000000000000000000000000000000081526004018080602001828103825260248152602001806146126024913960400191505060405180910390fd5b600061184b84612302565b90506118578484613d9e565b600061186285612302565b90508181119250505092915050565b61187a81613f65565b50565b600c818154811061188a57fe5b906000526020600020016000915090505481565b6000600660009054906101000a900473ffffffffffffffffffffffffffffffffffffffff1673ffffffffffffffffffffffffffffffffffffffff166118e1613332565b73ffffffffffffffffffffffffffffffffffffffff1614905090565b690a2a15d09519be00000081565b600a5481565b3373ffffffffffffffffffffffffffffffffffffffff16600660009054906101000a900473ffffffffffffffffffffffffffffffffffffffff1673ffffffffffffffffffffffffffffffffffffffff16146119b7576040517f08c379a00000000000000000000000000000000000000000000000000000000081526004018080602001828103825260248152602001806146126024913960400191505060405180910390fd5b600660149054906101000a900460ff1615611a3a576040517f08c379a00000000000000000000000000000000000000000000000000000000081526004018080602001828103825260188152602001807f6f6e6c792063616e2064697374726962757465206f6e6365000000000000000081525060200191505060405180910390fd5b600073ffffffffffffffffffffffffffffffffffffffff168373ffffffffffffffffffffffffffffffffffffffff161415611add576040517f08c379a000000000000000000000000000000000000000000000000000000000815260040180806020018281038252600d8152602001807f215f67656e65736973506f6f6c0000000000000000000000000000000000000081525060200191505060405180910390fd5b600073ffffffffffffffffffffffffffffffffffffffff168273ffffffffffffffffffffffffffffffffffffffff161415611b80576040517f08c379a00000000000000000000000000000000000000000000000000000000081526004018080602001828103825260098152602001807f215f757461506f6f6c000000000000000000000000000000000000000000000081525060200191505060405180910390fd5b600073ffffffffffffffffffffffffffffffffffffffff168173ffffffffffffffffffffffffffffffffffffffff161415611c23576040517f08c379a000000000000000000000000000000000000000000000000000000000815260040180806020018281038252600f8152602001807f215f61697264726f7057616c6c6574000000000000000000000000000000000081525060200191505060405180910390fd5b6001600660146101000a81548160ff021916908315150217905550611c5283690a2a15d09519be000000613d9e565b611c6682698e4d3168276864000000613d9e565b611c7a81690a2a15d09519be000000613d9e565b505050565b698e4d316827686400000081565b3373ffffffffffffffffffffffffffffffffffffffff16600660009054906101000a900473ffffffffffffffffffffffffffffffffffffffff1673ffffffffffffffffffffffffffffffffffffffff1614611d33576040517f08c379a00000000000000000000000000000000000000000000000000000000081526004018080602001828103825260248152602001806146126024913960400191505060405180910390fd5b8273ffffffffffffffffffffffffffffffffffffffff1663a9059cbb82846040518363ffffffff1660e01b8152600401808373ffffffffffffffffffffffffffffffffffffffff1673ffffffffffffffffffffffffffffffffffffffff16815260200182815260200192505050602060405180830381600087803b158015611dba57600080fd5b505af1158015611dce573d6000803e3d6000fd5b505050506040513d6020811015611de457600080fd5b810190808051906020019092919050505050505050565b6000600660009054906101000a900473ffffffffffffffffffffffffffffffffffffffff16905090565b600d8181548110611e3257fe5b906000526020600020016000915090505481565b3373ffffffffffffffffffffffffffffffffffffffff16600860009054906101000a900473ffffffffffffffffffffffffffffffffffffffff1673ffffffffffffffffffffffffffffffffffffffff1614611f09576040517f08c379a000000000000000000000000000000000000000000000000000000000815260040180806020018281038252601c8152602001807f43616c6c6572206973206e6f742074686520746178206f66666963650000000081525060200191505060405180910390fd5b6000600b60146101000a81548160ff021916908315150217905550565b60003373ffffffffffffffffffffffffffffffffffffffff16600860009054906101000a900473ffffffffffffffffffffffffffffffffffffffff1673ffffffffffffffffffffffffffffffffffffffff1614611feb576040517f08c379a000000000000000000000000000000000000000000000000000000000815260040180806020018281038252601c8152602001807f43616c6c6572206973206e6f742074686520746178206f66666963650000000081525060200191505060405180910390fd5b60008360ff161015612065576040517f08c379a000000000000000000000000000000000000000000000000000000000815260040180806020018281038252601d8152602001807f496e6465782068617320746f20626520686967686572207468616e203000000081525060200191505060405180910390fd5b61206d612a01565b8360ff16106120c7576040517f08c379a000000000000000000000000000000000000000000000000000000000815260040180806020018281038252602a815260200180614636602a913960400191505060405180910390fd5b60008360ff1611156120fd57600c6001840360ff16815481106120e657fe5b906000526020600020015482116120fc57600080fd5b5b612118600161210a612a01565b613f7990919063ffffffff16565b8360ff16101561214c57600c6001840160ff168154811061213557fe5b9060005260206000200154821061214b57600080fd5b5b81600c8460ff168154811061215d57fe5b90600052602060002001819055506001905092915050565b3373ffffffffffffffffffffffffffffffffffffffff16600860009054906101000a900473ffffffffffffffffffffffffffffffffffffffff1673ffffffffffffffffffffffffffffffffffffffff1614612238576040517f08c379a000000000000000000000000000000000000000000000000000000000815260040180806020018281038252601c8152602001807f43616c6c6572206973206e6f742074686520746178206f66666963650000000081525060200191505060405180910390fd5b600073ffffffffffffffffffffffffffffffffffffffff168173ffffffffffffffffffffffffffffffffffffffff1614156122be576040517f08c379a000000000000000000000000000000000000000000000000000000000815260040180806020018281038252602e8152602001806145c0602e913960400191505060405180910390fd5b80600b60006101000a81548173ffffffffffffffffffffffffffffffffffffffff021916908373ffffffffffffffffffffffffffffffffffffffff16021790555050565b60008060008373ffffffffffffffffffffffffffffffffffffffff1673ffffffffffffffffffffffffffffffffffffffff168152602001908152602001600020549050919050565b612352613332565b73ffffffffffffffffffffffffffffffffffffffff166123706125ad565b73ffffffffffffffffffffffffffffffffffffffff16146123f9576040517f08c379a00000000000000000000000000000000000000000000000000000000081526004018080602001828103825260208152602001807f4f776e61626c653a2063616c6c6572206973206e6f7420746865206f776e657281525060200191505060405180910390fd5b600073ffffffffffffffffffffffffffffffffffffffff16600560019054906101000a900473ffffffffffffffffffffffffffffffffffffffff1673ffffffffffffffffffffffffffffffffffffffff167f8be0079c531659141344cd1fd0a4f28419497f9722a3daafe3b4186f6b6457e060405160405180910390a36000600560016101000a81548173ffffffffffffffffffffffffffffffffffffffff021916908373ffffffffffffffffffffffffffffffffffffffff160217905550565b60095481565b3373ffffffffffffffffffffffffffffffffffffffff16600660009054906101000a900473ffffffffffffffffffffffffffffffffffffffff1673ffffffffffffffffffffffffffffffffffffffff1614612566576040517f08c379a00000000000000000000000000000000000000000000000000000000081526004018080602001828103825260248152602001806146126024913960400191505060405180910390fd5b6125708282613ffc565b5050565b600760009054906101000a900473ffffffffffffffffffffffffffffffffffffffff1681565b600b60149054906101000a900460ff1681565b6000600560019054906101000a900473ffffffffffffffffffffffffffffffffffffffff16905090565b60006125e161189e565b8061263957503373ffffffffffffffffffffffffffffffffffffffff16600860009054906101000a900473ffffffffffffffffffffffffffffffffffffffff1673ffffffffffffffffffffffffffffffffffffffff16145b61268e576040517f08c379a000000000000000000000000000000000000000000000000000000000815260040180806020018281038252602c8152602001806146ec602c913960400191505060405180910390fd5b600e60008373ffffffffffffffffffffffffffffffffffffffff1673ffffffffffffffffffffffffffffffffffffffff16815260200190815260200160002060009054906101000a900460ff1661274d576040517f08c379a00000000000000000000000000000000000000000000000000000000081526004018080602001828103825260198152602001807f616464726573732063616e277420626520696e636c756465640000000000000081525060200191505060405180910390fd5b6000600e60008473ffffffffffffffffffffffffffffffffffffffff1673ffffffffffffffffffffffffffffffffffffffff16815260200190815260200160002060006101000a81548160ff02191690831515021790555060019050919050565b606060048054600181600116156101000203166002900480601f0160208091040260200160405190810160405280929190818152602001828054600181600116156101000203166002900480156128465780601f1061281b57610100808354040283529160200191612846565b820191906000526020600020905b81548152906001019060200180831161282957829003601f168201915b5050505050905090565b600660149054906101000a900460ff1681565b60003373ffffffffffffffffffffffffffffffffffffffff16600860009054906101000a900473ffffffffffffffffffffffffffffffffffffffff1673ffffffffffffffffffffffffffffffffffffffff1614612928576040517f08c379a000000000000000000000000000000000000000000000000000000000815260040180806020018281038252601c8152602001807f43616c6c6572206973206e6f742074686520746178206f66666963650000000081525060200191505060405180910390fd5b81600a81905550919050565b60006129f7612941613332565b846129f28560405180606001604052806025815260200161473c602591396001600061296b613332565b73ffffffffffffffffffffffffffffffffffffffff1673ffffffffffffffffffffffffffffffffffffffff16815260200190815260200160002060008a73ffffffffffffffffffffffffffffffffffffffff1673ffffffffffffffffffffffffffffffffffffffff16815260200190815260200160002054613b379092919063ffffffff16565b61333a565b6001905092915050565b6000600c80549050905090565b6000612a22612a1b613332565b84846137d5565b6001905092915050565b60003373ffffffffffffffffffffffffffffffffffffffff16600860009054906101000a900473ffffffffffffffffffffffffffffffffffffffff1673ffffffffffffffffffffffffffffffffffffffff1614612af1576040517f08c379a000000000000000000000000000000000000000000000000000000000815260040180806020018281038252601c8152602001807f43616c6c6572206973206e6f742074686520746178206f66666963650000000081525060200191505060405180910390fd5b60008360ff161015612b6b576040517f08c379a000000000000000000000000000000000000000000000000000000000815260040180806020018281038252601d8152602001807f496e6465782068617320746f20626520686967686572207468616e203000000081525060200191505060405180910390fd5b612b73613042565b8360ff1610612bcd576040517f08c379a000000000000000000000000000000000000000000000000000000000815260040180806020018281038252602a815260200180614636602a913960400191505060405180910390fd5b81600d8460ff1681548110612bde57fe5b90600052602060002001819055506001905092915050565b600b60009054906101000a900473ffffffffffffffffffffffffffffffffffffffff1681565b3373ffffffffffffffffffffffffffffffffffffffff16600860009054906101000a900473ffffffffffffffffffffffffffffffffffffffff1673ffffffffffffffffffffffffffffffffffffffff1614612cdf576040517f08c379a000000000000000000000000000000000000000000000000000000000815260040180806020018281038252601c8152602001807f43616c6c6572206973206e6f742074686520746178206f66666963650000000081525060200191505060405180910390fd5b600b60149054906101000a900460ff1615612d45576040517f08c379a00000000000000000000000000000000000000000000000000000000081526004018080602001828103825260248152602001806146a36024913960400191505060405180910390fd5b6127108110612dbc576040517f08c379a000000000000000000000000000000000000000000000000000000000815260040180806020018281038252601b8152602001807f74617820657175616c206f722062696767657220746f2031303025000000000081525060200191505060405180910390fd5b8060098190555050565b612dce61189e565b80612e2657503373ffffffffffffffffffffffffffffffffffffffff16600860009054906101000a900473ffffffffffffffffffffffffffffffffffffffff1673ffffffffffffffffffffffffffffffffffffffff16145b612e7b576040517f08c379a000000000000000000000000000000000000000000000000000000000815260040180806020018281038252602c8152602001806146ec602c913960400191505060405180910390fd5b600073ffffffffffffffffffffffffffffffffffffffff168173ffffffffffffffffffffffffffffffffffffffff161415612f01576040517f08c379a00000000000000000000000000000000000000000000000000000000081526004018080602001828103825260228152602001806146816022913960400191505060405180910390fd5b80600760006101000a81548173ffffffffffffffffffffffffffffffffffffffff021916908373ffffffffffffffffffffffffffffffffffffffff16021790555050565b600e6020528060005260406000206000915054906101000a900460ff1681565b6000600160008473ffffffffffffffffffffffffffffffffffffffff1673ffffffffffffffffffffffffffffffffffffffff16815260200190815260200160002060008373ffffffffffffffffffffffffffffffffffffffff1673ffffffffffffffffffffffffffffffffffffffff16815260200190815260200160002054905092915050565b6000600e60008373ffffffffffffffffffffffffffffffffffffffff1673ffffffffffffffffffffffffffffffffffffffff16815260200190815260200160002060009054906101000a900460ff169050919050565b6000600d80549050905090565b613057613332565b73ffffffffffffffffffffffffffffffffffffffff166130756125ad565b73ffffffffffffffffffffffffffffffffffffffff16146130fe576040517f08c379a00000000000000000000000000000000000000000000000000000000081526004018080602001828103825260208152602001807f4f776e61626c653a2063616c6c6572206973206e6f7420746865206f776e657281525060200191505060405180910390fd5b600073ffffffffffffffffffffffffffffffffffffffff168173ffffffffffffffffffffffffffffffffffffffff161415613184576040517f08c379a000000000000000000000000000000000000000000000000000000000815260040180806020018281038252602681526020018061448c6026913960400191505060405180910390fd5b8073ffffffffffffffffffffffffffffffffffffffff16600560019054906101000a900473ffffffffffffffffffffffffffffffffffffffff1673ffffffffffffffffffffffffffffffffffffffff167f8be0079c531659141344cd1fd0a4f28419497f9722a3daafe3b4186f6b6457e060405160405180910390a380600560016101000a81548173ffffffffffffffffffffffffffffffffffffffff021916908373ffffffffffffffffffffffffffffffffffffffff16021790555050565b3373ffffffffffffffffffffffffffffffffffffffff16600860009054906101000a900473ffffffffffffffffffffffffffffffffffffffff1673ffffffffffffffffffffffffffffffffffffffff1614613307576040517f08c379a000000000000000000000000000000000000000000000000000000000815260040180806020018281038252601c8152602001807f43616c6c6572206973206e6f742074686520746178206f66666963650000000081525060200191505060405180910390fd5b6001600b60146101000a81548160ff021916908315150217905550565b690a2a15d09519be00000081565b600033905090565b600073ffffffffffffffffffffffffffffffffffffffff168373ffffffffffffffffffffffffffffffffffffffff1614156133c0576040517f08c379a00000000000000000000000000000000000000000000000000000000081526004018080602001828103825260248152602001806147186024913960400191505060405180910390fd5b600073ffffffffffffffffffffffffffffffffffffffff168273ffffffffffffffffffffffffffffffffffffffff161415613446576040517f08c379a00000000000000000000000000000000000000000000000000000000081526004018080602001828103825260228152602001806144b26022913960400191505060405180910390fd5b80600160008573ffffffffffffffffffffffffffffffffffffffff1673ffffffffffffffffffffffffffffffffffffffff16815260200190815260200160002060008473ffffffffffffffffffffffffffffffffffffffff1673ffffffffffffffffffffffffffffffffffffffff168152602001908152602001600020819055508173ffffffffffffffffffffffffffffffffffffffff168373ffffffffffffffffffffffffffffffffffffffff167f8c5be1e5ebec7d5bd14f71427d1e84f3dd0314c0f7b2291e5b200ac8c7c3b925836040518082815260200191505060405180910390a3505050565b6000600760009054906101000a900473ffffffffffffffffffffffffffffffffffffffff1673ffffffffffffffffffffffffffffffffffffffff16633ddac95330670de0b6b3a76400006040518363ffffffff1660e01b8152600401808373ffffffffffffffffffffffffffffffffffffffff1673ffffffffffffffffffffffffffffffffffffffff1681526020018281526020019250505060206040518083038186803b1580156135e257600080fd5b505afa92505050801561361657506040513d602081101561360257600080fd5b810190808051906020019092919050505060015b61366b576040517f08c379a000000000000000000000000000000000000000000000000000000000815260040180806020018281038252602a815260200180614520602a913960400191505060405180910390fd5b8071ffffffffffffffffffffffffffffffffffff1691505090565b6000600b60149054906101000a900460ff16156137cf5760006136bd60016136ac612a01565b60ff1661405e90919063ffffffff16565b90505b60008160ff16106137cd57600c8160ff16815481106136db57fe5b906000526020600020015483106137c157612710600d8260ff16815481106136ff57fe5b90600052602060002001541061377d576040517f08c379a000000000000000000000000000000000000000000000000000000000815260040180806020018281038252601b8152602001807f74617820657175616c206f722062696767657220746f2031303025000000000081525060200191505060405180910390fd5b600d8160ff168154811061378d57fe5b9060005260206000200154600981905550600d8160ff16815481106137ae57fe5b90600052602060002001549150506137d0565b806001900390506136c0565b505b5b919050565b600073ffffffffffffffffffffffffffffffffffffffff168373ffffffffffffffffffffffffffffffffffffffff16141561385b576040517f08c379a00000000000000000000000000000000000000000000000000000000081526004018080602001828103825260258152602001806146c76025913960400191505060405180910390fd5b600073ffffffffffffffffffffffffffffffffffffffff168273ffffffffffffffffffffffffffffffffffffffff1614156138e1576040517f08c379a00000000000000000000000000000000000000000000000000000000081526004018080602001828103825260238152602001806144476023913960400191505060405180910390fd5b6138ec8383836140a8565b613957816040518060600160405280602681526020016144d4602691396000808773ffffffffffffffffffffffffffffffffffffffff1673ffffffffffffffffffffffffffffffffffffffff16815260200190815260200160002054613b379092919063ffffffff16565b6000808573ffffffffffffffffffffffffffffffffffffffff1673ffffffffffffffffffffffffffffffffffffffff168152602001908152602001600020819055506139ea816000808573ffffffffffffffffffffffffffffffffffffffff1673ffffffffffffffffffffffffffffffffffffffff16815260200190815260200160002054613d1690919063ffffffff16565b6000808473ffffffffffffffffffffffffffffffffffffffff1673ffffffffffffffffffffffffffffffffffffffff168152602001908152602001600020819055508173ffffffffffffffffffffffffffffffffffffffff168373ffffffffffffffffffffffffffffffffffffffff167fddf252ad1be2c89b69c2b068fc378daa952ba7f163c4a11628f55a4df523b3ef836040518082815260200191505060405180910390a3505050565b600080613ac2612710613ab4600954876140ad90919063ffffffff16565b61413390919063ffffffff16565b90506000613ad98286613f7990919063ffffffff16565b90508315613af057613aeb8783613ffc565b613b1e565b613b1d87600b60009054906101000a900473ffffffffffffffffffffffffffffffffffffffff16846137d5565b5b613b298787836137d5565b600192505050949350505050565b6000838311158290613be4576040517f08c379a00000000000000000000000000000000000000000000000000000000081526004018080602001828103825283818151815260200191508051906020019080838360005b83811015613ba9578082015181840152602081019050613b8e565b50505050905090810190601f168015613bd65780820380516001836020036101000a031916815260200191505b509250505060405180910390fd5b5082840390509392505050565b600073ffffffffffffffffffffffffffffffffffffffff168173ffffffffffffffffffffffffffffffffffffffff161415613c77576040517f08c379a000000000000000000000000000000000000000000000000000000000815260040180806020018281038252602d81526020018061454a602d913960400191505060405180910390fd5b8073ffffffffffffffffffffffffffffffffffffffff16600073ffffffffffffffffffffffffffffffffffffffff167f74da04524d50c64947f5dd5381ef1a4dca5cba8ed1d816243f9e48aa0b5617ed60405160405180910390a380600660006101000a81548173ffffffffffffffffffffffffffffffffffffffff021916908373ffffffffffffffffffffffffffffffffffffffff16021790555050565b600080828401905083811015613d94576040517f08c379a000000000000000000000000000000000000000000000000000000000815260040180806020018281038252601b8152602001807f536166654d6174683a206164646974696f6e206f766572666c6f77000000000081525060200191505060405180910390fd5b8091505092915050565b600073ffffffffffffffffffffffffffffffffffffffff168273ffffffffffffffffffffffffffffffffffffffff161415613e41576040517f08c379a000000000000000000000000000000000000000000000000000000000815260040180806020018281038252601f8152602001807f45524332303a206d696e7420746f20746865207a65726f20616464726573730081525060200191505060405180910390fd5b613e4d600083836140a8565b613e6281600254613d1690919063ffffffff16565b600281905550613eb9816000808573ffffffffffffffffffffffffffffffffffffffff1673ffffffffffffffffffffffffffffffffffffffff16815260200190815260200160002054613d1690919063ffffffff16565b6000808473ffffffffffffffffffffffffffffffffffffffff1673ffffffffffffffffffffffffffffffffffffffff168152602001908152602001600020819055508173ffffffffffffffffffffffffffffffffffffffff16600073ffffffffffffffffffffffffffffffffffffffff167fddf252ad1be2c89b69c2b068fc378daa952ba7f163c4a11628f55a4df523b3ef836040518082815260200191505060405180910390a35050565b613f76613f70613332565b826141bc565b50565b600082821115613ff1576040517f08c379a000000000000000000000000000000000000000000000000000000000815260040180806020018281038252601e8152602001807f536166654d6174683a207375627472616374696f6e206f766572666c6f77000081525060200191505060405180910390fd5b818303905092915050565b600061403b826040518060600160405280602481526020016145ee6024913961402c86614027613332565b612f65565b613b379092919063ffffffff16565b905061404f83614049613332565b8361333a565b61405983836141bc565b505050565b60006140a083836040518060400160405280601e81526020017f536166654d6174683a207375627472616374696f6e206f766572666c6f770000815250614380565b905092915050565b505050565b6000808314156140c0576000905061412d565b60008284029050828482816140d157fe5b0414614128576040517f08c379a00000000000000000000000000000000000000000000000000000000081526004018080602001828103825260218152602001806145776021913960400191505060405180910390fd5b809150505b92915050565b60008082116141aa576040517f08c379a000000000000000000000000000000000000000000000000000000000815260040180806020018281038252601a8152602001807f536166654d6174683a206469766973696f6e206279207a65726f00000000000081525060200191505060405180910390fd5b8183816141b357fe5b04905092915050565b600073ffffffffffffffffffffffffffffffffffffffff168273ffffffffffffffffffffffffffffffffffffffff161415614242576040517f08c379a00000000000000000000000000000000000000000000000000000000081526004018080602001828103825260218152602001806146606021913960400191505060405180910390fd5b61424e826000836140a8565b6142b98160405180606001604052806022815260200161446a602291396000808673ffffffffffffffffffffffffffffffffffffffff1673ffffffffffffffffffffffffffffffffffffffff16815260200190815260200160002054613b379092919063ffffffff16565b6000808473ffffffffffffffffffffffffffffffffffffffff1673ffffffffffffffffffffffffffffffffffffffff1681526020019081526020016000208190555061431081600254613f7990919063ffffffff16565b600281905550600073ffffffffffffffffffffffffffffffffffffffff168273ffffffffffffffffffffffffffffffffffffffff167fddf252ad1be2c89b69c2b068fc378daa952ba7f163c4a11628f55a4df523b3ef836040518082815260200191505060405180910390a35050565b60008360ff168360ff1611158290614433576040517f08c379a00000000000000000000000000000000000000000000000000000000081526004018080602001828103825283818151815260200191508051906020019080838360005b838110156143f85780820151818401526020810190506143dd565b50505050905090810190601f1680156144255780820380516001836020036101000a031916815260200191505b509250505060405180910390fd5b506000838503905080915050939250505056fe45524332303a207472616e7366657220746f20746865207a65726f206164647265737345524332303a206275726e20616d6f756e7420657863656564732062616c616e63654f776e61626c653a206e6577206f776e657220697320746865207a65726f206164647265737345524332303a20617070726f766520746f20746865207a65726f206164647265737345524332303a207472616e7366657220616d6f756e7420657863656564732062616c616e6365746178206f666669636520616464726573732063616e6e6f74206265203020616464726573735554413a206661696c656420746f206665746368205554412070726963652066726f6d204f7261636c656f70657261746f723a207a65726f206164647265737320676976656e20666f72206e6577206f70657261746f72536166654d6174683a206d756c7469706c69636174696f6e206f766572666c6f7745524332303a207472616e7366657220616d6f756e74206578636565647320616c6c6f77616e636574617820636f6c6c6563746f722061646472657373206d757374206265206e6f6e2d7a65726f206164647265737345524332303a206275726e20616d6f756e74206578636565647320616c6c6f77616e63656f70657261746f723a2063616c6c6572206973206e6f7420746865206f70657261746f72496e6465782068617320746f206c6f776572207468616e20636f756e74206f662074617820746965727345524332303a206275726e2066726f6d20746865207a65726f20616464726573736f7261636c6520616464726573732063616e6e6f74206265203020616464726573736175746f2063616c63756c617465207461782063616e6e6f7420626520656e61626c656445524332303a207472616e736665722066726f6d20746865207a65726f206164647265737343616c6c6572206973206e6f7420746865206f70657261746f72206f722074686520746178206f666669636545524332303a20617070726f76652066726f6d20746865207a65726f206164647265737345524332303a2064656372656173656420616c6c6f77616e63652062656c6f77207a65726fa2646970667358221220936aa7265e5110e8701d7a9fb27765b617930fddcb7f1f75a05c9df49217a49a64736f6c6343000600003374617820636f6c6c6563746f722061646472657373206d757374206265206e6f6e2d7a65726f206164647265737343616c6c6572206973206e6f7420746865206f70657261746f72206f722074686520746178206f6666696365",
  "linkReferences": {},
  "deployedLinkReferences": {}
}